:100000000C942A000C9488010C9488010C948801AB
:100010000C9488010C9488010C9488010C9488013C
:100020000C9488010C9488010C9488010C9488012C
:100030000C9488010C9488010C9488010C9488011C
:100040000C9488010C9488010C9488010C9488010C
:100050000C94880111241FBECFE5D8E0DEBFCDBFD0
:0C0060000E9436000C943400F894FFCF8E
:10006C0081E090E00E947E0161E070E083E090E02E
:10007C000E942D0160E070E080E090E00E940B0196
:10008C0060E070E084E090E00E940B0160E070E0C2
:10009C0082E090E00E942D0183E00E944F0180E0FD
:1000AC0090E00E946601892B31F063E082E090E0E1
:1000BC000E94CC0005C063E082E090E00E948900C1
:1000CC0084E090E00E946601892B31F063E087E0C8
:1000DC0090E00E94CC0005C063E087E090E00E94B5
:1000EC00890082E090E00E947201892B31F064E07B
:1000FC0083E090E00E94CC00CFCF64E083E090E0FE
:06010C000E948900C9CF2A
:100112006230B9F018F4613031F008956330F9F0CB
:10012200643059F108954BB321E030E0B90102C0C7
:10013200660F771F8A95E2F7CB01809584238BBBEC
:10014200089548B321E030E0B90102C0660F771F7D
:100152008A95E2F7CB018095842388BB089545B345
:1001620021E030E0B90102C0660F771F8A95E2F7FD
:10017200CB018095842385BB089542B321E030E012
:10018200B90102C0660F771F8A95E2F7CB0180950D
:06019200842382BB0895E6
:100198006230B1F018F4613031F008956330E9F05D
:1001A800643041F108954BB321E030E0B90102C059
:1001B800660F771F8A95E2F7CB01842B8BBB0895D6
:1001C80048B321E030E0B90102C0660F771F8A9575
:1001D800E2F7CB01842B88BB089545B321E030E0DA
:1001E800B90102C0660F771F8A95E2F7CB01842B0D
:1001F80085BB089542B321E030E0B90102C0660F23
:0E020800771F8A95E2F7CB01842B82BB089505
:100216006115710521F06130710579F0089547B3D4
:1002260021E030E0B90102C0660F771F8A95E2F738
:10023600CB018095842387BB089547B321E030E046
:10024600B90102C0660F771F8A95E2F7CB01842BAE
:0402560087BB0895C5
:10025A006115710521F06130710579F0089541B396
:10026A0021E030E0B90102C0660F771F8A95E2F7F4
:10027A00CB018095842381BB089541B321E030E00E
:10028A00B90102C0660F771F8A95E2F7CB01842B6A
:04029A0081BB089587
:10029E00823061F018F4813031F00895833049F0E6
:1002AE00843051F008958FEF8BBB08958FEF88BB8C
:0E02BE0008958FEF85BB08958FEF82BB0895E2
:1002CC0026B330E0A90102C0559547958A95E2F70F
:0802DC00CA0181709927089501
:1002E40020B330E0A90102C0559547958A95E2F7FD
:0802F400CA01817099270895E9
:1002FC00009719F0019719F0089514BA08958FEF2B
:04030C0084BB089511
:040310000C94000049
:00000001FF
